{
  "contractName": "insurancecontract",
  "abi": [
    {
      "inputs": [],
      "stateMutability": "nonpayable",
      "type": "constructor"
    },
    {
      "inputs": [
        {
          "internalType": "address",
          "name": "",
          "type": "address"
        },
        {
          "internalType": "uint256",
          "name": "",
          "type": "uint256"
        }
      ],
      "name": "customer",
      "outputs": [
        {
          "internalType": "bool",
          "name": "isValid",
          "type": "bool"
        },
        {
          "internalType": "uint256",
          "name": "time",
          "type": "uint256"
        }
      ],
      "stateMutability": "view",
      "type": "function",
      "constant": true
    },
    {
      "inputs": [
        {
          "internalType": "uint256",
          "name": "",
          "type": "uint256"
        }
      ],
      "name": "objectIndex",
      "outputs": [
        {
          "internalType": "uint256",
          "name": "objectId",
          "type": "uint256"
        },
        {
          "internalType": "string",
          "name": "objectName",
          "type": "string"
        },
        {
          "internalType": "uint256",
          "name": "price",
          "type": "uint256"
        },
        {
          "internalType": "bool",
          "name": "offered",
          "type": "bool"
        }
      ],
      "stateMutability": "view",
      "type": "function",
      "constant": true
    },
    {
      "inputs": [
        {
          "internalType": "uint256",
          "name": "_objectId",
          "type": "uint256"
        },
        {
          "internalType": "string",
          "name": "_objectName",
          "type": "string"
        },
        {
          "internalType": "uint256",
          "name": "_price",
          "type": "uint256"
        }
      ],
      "name": "addObject",
      "outputs": [],
      "stateMutability": "nonpayable",
      "type": "function"
    },
    {
      "inputs": [
        {
          "internalType": "uint256",
          "name": "_objectIndex",
          "type": "uint256"
        }
      ],
      "name": "doNotOffer",
      "outputs": [
        {
          "internalType": "bool",
          "name": "",
          "type": "bool"
        }
      ],
      "stateMutability": "nonpayable",
      "type": "function"
    },
    {
      "inputs": [
        {
          "internalType": "uint256",
          "name": "_objectIndex",
          "type": "uint256"
        }
      ],
      "name": "forOffer",
      "outputs": [
        {
          "internalType": "bool",
          "name": "",
          "type": "bool"
        }
      ],
      "stateMutability": "nonpayable",
      "type": "function"
    },
    {
      "inputs": [
        {
          "internalType": "uint256",
          "name": "_objectIndex",
          "type": "uint256"
        },
        {
          "internalType": "uint256",
          "name": "_price",
          "type": "uint256"
        }
      ],
      "name": "changePrice",
      "outputs": [],
      "stateMutability": "view",
      "type": "function",
      "constant": true
    },
    {
      "inputs": [
        {
          "internalType": "uint256",
          "name": "_price",
          "type": "uint256"
        }
      ],
      "name": "setPrice",
      "outputs": [],
      "stateMutability": "nonpayable",
      "type": "function"
    },
    {
      "inputs": [
        {
          "internalType": "uint256",
          "name": "_objectIndex",
          "type": "uint256"
        }
      ],
      "name": "customerSelect",
      "outputs": [
        {
          "internalType": "bool",
          "name": "",
          "type": "bool"
        }
      ],
      "stateMutability": "payable",
      "type": "function",
      "payable": true
    },
    {
      "inputs": [
        {
          "internalType": "uint256",
          "name": "_objectIndex",
          "type": "uint256"
        }
      ],
      "name": "buyInsurance",
      "outputs": [],
      "stateMutability": "payable",
      "type": "function",
      "payable": true
    }
  ],
  "bytecode": "0x608060405234801561001057600080fd5b50600360009054906101000a900473ffffffffffffffffffffffffffffffffffffffff16600360006101000a81548173ffffffffffffffffffffffffffffffffffffffff021916908373ffffffffffffffffffffffffffffffffffffffff160217905550610cae806100836000396000f3fe6080604052600436106100865760003560e01c806396e2b6b91161005957806396e2b6b9146102e5578063a86a658c14610336578063a92e118f14610364578063b3de019c146103b5578063f95815c0146103fa57610086565b80630aa93fbd1461008b5780638e9736be1461010357806391b7f5ed146101df57806394b807781461021a575b600080fd5b34801561009757600080fd5b506100e4600480360360408110156100ae57600080fd5b81019080803573ffffffffffffffffffffffffffffffffffffffff1690602001909291908035906020019092919050505061043e565b6040518083151581526020018281526020019250505060405180910390f35b34801561010f57600080fd5b506101dd6004803603606081101561012657600080fd5b81019080803590602001909291908035906020019064010000000081111561014d57600080fd5b82018360208201111561015f57600080fd5b8035906020019184600183028401116401000000008311171561018157600080fd5b91908080601f016020809104026020016040519081016040528093929190818152602001838380828437600081840152601f19601f8201169050808301925050505050505091929192908035906020019092919050505061047c565b005b3480156101eb57600080fd5b506102186004803603602081101561020257600080fd5b8101908080359060200190929190505050610539565b005b34801561022657600080fd5b506102536004803603602081101561023d57600080fd5b8101908080359060200190929190505050610605565b60405180858152602001806020018481526020018315158152602001828103825285818151815260200191508051906020019080838360005b838110156102a757808201518184015260208101905061028c565b50505050905090810190601f1680156102d45780820380516001836020036101000a031916815260200191505b509550505050505060405180910390f35b3480156102f157600080fd5b5061031e6004803603602081101561030857600080fd5b81019080803590602001909291905050506106da565b60405180821515815260200191505060405180910390f35b6103626004803603602081101561034c57600080fd5b81019080803590602001909291905050506107d0565b005b34801561037057600080fd5b5061039d6004803603602081101561038757600080fd5b81019080803590602001909291905050506107d3565b60405180821515815260200191505060405180910390f35b3480156103c157600080fd5b506103f8600480360360408110156103d857600080fd5b8101908080359060200190929190803590602001909291905050506108c9565b005b6104266004803603602081101561041057600080fd5b810190808035906020019092919050505061096e565b60405180821515815260200191505060405180910390f35b6001602052816000526040600020602052806000526040600020600091509150508060000160009054906101000a900460ff16908060010154905082565b600260008154809291906001019190505550610496610b95565b60405180608001604052808581526020018481526020018381526020016001151581525090508060008060026000815480929190600101919050558152602001908152602001600020600082015181600001556020820151816001019080519060200190610505929190610bbf565b506040820151816002015560608201518160030160006101000a81548160ff02191690831515021790555090505050505050565b60008190503373ffffffffffffffffffffffffffffffffffffffff16600360009054906101000a900473ffffffffffffffffffffffffffffffffffffffff1673ffffffffffffffffffffffffffffffffffffffff1614610601576040517f08c379a00000000000000000000000000000000000000000000000000000000081526004018080602001828103825260158152602001807f796f7520617265206e6f7420746865206f776e6572000000000000000000000081525060200191505060405180910390fd5b5050565b6000602052806000526040600020600091509050806000015490806001018054600181600116156101000203166002900480601f0160208091040260200160405190810160405280929190818152602001828054600181600116156101000203166002900480156106b75780601f1061068c576101008083540402835291602001916106b7565b820191906000526020600020905b81548152906001019060200180831161069a57829003601f168201915b5050505050908060020154908060030160009054906101000a900460ff16905084565b6000600360009054906101000a900473ffffffffffffffffffffffffffffffffffffffff1673ffffffffffffffffffffffffffffffffffffffff163373ffffffffffffffffffffffffffffffffffffffff161461079f576040517f08c379a000000000000000000000000000000000000000000000000000000000815260040180806020018281038252600d8152602001807f49276c6c206f666665722069740000000000000000000000000000000000000081525060200191505060405180910390fd5b6001151560008084815260200190815260200160002060030160009054906101000a900460ff161515149050919050565b50565b6000600360009054906101000a900473ffffffffffffffffffffffffffffffffffffffff1673ffffffffffffffffffffffffffffffffffffffff163373ffffffffffffffffffffffffffffffffffffffff1614610898576040517f08c379a00000000000000000000000000000000000000000000000000000000081526004018080602001828103825260088152602001807f6e6f206f6666657200000000000000000000000000000000000000000000000081525060200191505060405180910390fd5b6000151560008084815260200190815260200160002060030160009054906101000a900460ff161515149050919050565b6001600080848152602001908152602001600020600201541015610955576040517f08c379a000000000000000000000000000000000000000000000000000000000815260040180806020018281038252600f8152602001807f6e6f742076616c69642076616c7565000000000000000000000000000000000081525060200191505060405180910390fd5b8060008084815260200190815260200160002050505050565b60003460008084815260200190815260200160002060020154146109fa576040517f08c379a000000000000000000000000000000000000000000000000000000000815260040180806020018281038252600b8152602001807f4e6f7420616c6c6f77656400000000000000000000000000000000000000000081525060200191505060405180910390fd5b60008060008481526020019081526020016000206002015414610a85576040517f08c379a000000000000000000000000000000000000000000000000000000000815260040180806020018281038252600f8152602001807f4e6f742076616c69642076616c7565000000000000000000000000000000000081525060200191505060405180910390fd5b610a8d610c3f565b60018160000190151590811515815250504381602001818152505080600160003373ffffffffffffffffffffffffffffffffffffffff1673ffffffffffffffffffffffffffffffffffffffff168152602001908152602001600020600085815260200190815260200160002060008201518160000160006101000a81548160ff02191690831515021790555060208201518160010155905050600360009054906101000a900473ffffffffffffffffffffffffffffffffffffffff1673ffffffffffffffffffffffffffffffffffffffff166108fc349081150290604051600060405180830381858888f19350505050158015610b8e573d6000803e3d6000fd5b5050919050565b60405180608001604052806000815260200160608152602001600081526020016000151581525090565b828054600181600116156101000203166002900490600052602060002090601f016020900481019282601f10610c0057805160ff1916838001178555610c2e565b82800160010185558215610c2e579182015b82811115610c2d578251825591602001919060010190610c12565b5b509050610c3b9190610c5b565b5090565b6040518060400160405280600015158152602001600081525090565b5b80821115610c74576000816000905550600101610c5c565b509056fea2646970667358221220733548daf1d6102c0bdd24231a0fe1821d128af56aaa7b945e82240ea96e42bc64736f6c63430007000033",
  "immutableReferences": {},
  "source": "//SPDX-License-Identifier: MIT\npragma solidity ^0.7.0;\n\ncontract insurancecontract  {\n\n    struct Object {\n        uint objectId;\n        string objectName;\n        uint price;\n        bool offered;\n    }\n     \n    struct Customer {\n        bool isValid;\n        uint time;\n\n    }\n    \n    mapping(uint => Object) public objectIndex;\n    mapping(address => mapping(uint => Customer)) public customer;\n    \n    uint objectCounter;\n    \n    address payable insOwner;\n    constructor() public {\n      insOwner = insOwner;\n   }\n \n    function addObject(uint _objectId, string memory _objectName, uint _price ) public {\n        objectCounter++;\n        Object memory newObject =Object(_objectId, _objectName, _price, true);\n        objectIndex[objectCounter++] = newObject;\n    }\n    \n    function doNotOffer(uint _objectIndex) public returns(bool) {\n        require(msg.sender == insOwner, \"no offer\");\n        return objectIndex[_objectIndex].offered == false;\n    }\n    \n    function forOffer(uint _objectIndex) public returns(bool) {\n        require(msg.sender == insOwner, \"I'll offer it\");\n        return objectIndex[_objectIndex].offered ==true;\n    }\n\n    function changePrice(uint _objectIndex, uint _price) public view {\n        require(objectIndex[_objectIndex].price >= 1, \"not valid value\" );\n        objectIndex[_objectIndex].price== _price;\n    }\n    // handling the error\n    function setPrice (uint _price) public {\n        uint price = _price;\n        require(insOwner == msg.sender, \"you are not the owner\");\n    }\n    \n    function customerSelect(uint _objectIndex) public payable returns(bool) {\n        require(objectIndex[_objectIndex].price == msg.value, \"Not allowed\" );\n        require(objectIndex[_objectIndex].price == 0, \"Not valid value\");\n        \n        Customer memory newCustomer;\n        newCustomer.isValid = true;\n        newCustomer.time = block.number;\n        customer[msg.sender][_objectIndex] = newCustomer;\n        payable(insOwner).transfer(msg.value);\n        \n        }\n        \n     function buyInsurance(uint _objectIndex) public payable {\n        \n    } \n        \n    } ",
  "sourcePath": "/Users/RAFAH/Desktop/week6/contracts/insurancecontract.sol",
  "compiler": {
    "name": "solc",
    "version": "0.7.0+commit.9e61f92b.Emscripten.clang"
  },
  "schemaVersion": "3.3.4",
  "updatedAt": "2021-03-09T17:13:17.529Z",
  "networkType": "ethereum",
  "devdoc": {
    "kind": "dev",
    "methods": {},
    "version": 1
  },
  "userdoc": {
    "kind": "user",
    "methods": {},
    "version": 1
  }
}